:100000000C942A000C943F000C94E2000C943F00E6
:100010000C943F000C943F000C943F000C943F0064
:100020000C943F000C943F000C943F000C943F0054
:100030000C943F000C943F000C943F000C943F0044
:100040000C943F000C943F000C943F000C943F0034
:100050000C943F0011241FBECFE5D4E0DEBFCDBF1E
:1000600010E0A0E6B0E0E2E3F3E002C005900D92FC
:10007000AE36B107D9F70E9406010C9497010C9493
:10008000000017B883E886B9089597B1907E97B9B4
:1000900097B18770892B87B9369A349BFECF349AF3
:1000A00024B135B1C9010895949895982AEF30E0AC
:1000B000F9013197F1F7969AF9013197F1F785BB7C
:1000C000C9010197F1F79698C9010197F1F70895D1
:1000D0008FEF84BB81B3806781BB88E30E945400AB
:1000E0008CE00E94540081E00E9454000895949A8C
:1000F00095982AEF30E0F9013197F1F7969AF901D6
:100100003197F1F785BBC9010197F1F79698C901BD
:100110000197F1F708951F93CF93DF93EC0110E05F
:1001200003C00E9477001F5FFE01E10FF11D808177
:100130008823B9F7DF91CF911F910895813039F06D
:10014000813050F0823029F0833031F404C0605C9B
:1001500003C0605F01C0605B862F80680E9454000E
:1001600008950F931F938A010E949E00C8010E9468
:100170008B001F910F91089581E00E945400089513
:100180000F931F93DF93CF93CDB7DEB760970FB672
:10019000F894DEBF0FBECDBF8E010F5F1F4FB801B9
:1001A0004AE050E00E945201C8010E948B00609614
:1001B0000FB6F894DEBF0FBECDBFCF91DF911F9178
:1001C0000F9108951F920F920FB60F9211242F9343
:1001D0003F934F935F936F937F938F939F93AF93CF
:1001E000BF93EF93FF930E943A01FF91EF91BF916C
:1001F000AF919F918F917F916F915F914F913F91BF
:100200002F910F900FBE0F901F9018951F938FB7CF
:1002100080688FBF8DE70E9429010E9449010E94DA
:1002200031010E9468000E9441000E94BC0080E6EB
:1002300090E00E948B0080E06CE00E949E0080E0D5
:100240000E944500182F0E94C000812F0E942F019C
:10025000F2CF12BE8CBFBB9A8AE683BF08958CBFD3
:10026000089588B38C7F88BB87B3836087BBC098B1
:10027000C19A089580916D00882331F0C09AC19889
:1002800081E080936D000895C098C19A10926D002E
:1002900008958B98939A85B78C6085BF8BB78068DB
:1002A0008BBF0895FB019F01E8944230C4F04532B2
:1002B000B4F44A3029F497FB1EF4909581959F4F32
:1002C000642F77270E948301805D8A330CF0895D5B
:1002D0008193CB010097A1F716F45DE25193108250
:1002E000C9010C947301DC01FC01672F7191772324
:1002F000E1F7329704C07C916D9370836291AE17E1
:10030000BF07C8F30895AA1BBB1B51E107C0AA1F72
:10031000BB1FA617B70710F0A61BB70B881F991FA6
:100320005A95A9F780959095BC01CD010895F89450
:02033000FFCFFD
:0E0332004144432056616C7565203D2000015A
:00000001FF
